:020000040800F2
:100000000000032021580008014B0008034B0008A2
:10001000054B0008074B0008094B000800000000D2
:10002000000000000000000000000000811A00082D
:100030000B4B000800000000111B0008751B000896
:10004000715800087158000871580008715800086C
:10005000715800087158000871580008715800085C
:10006000715800087158000871580008715800084C
:10007000715800087158000871580008715800083C
:10008000715800087158000871580008715800082C
:10009000715800087158000871580008715800081C
:1000A000715800087158000871580008715800080C
:1000B00071580008715800087158000871580008FC
:1000C00071580008715800087158000871580008EC
:1000D00071580008715800087158000871580008DC
:1000E00071580008715800087158000871580008CC
:1000F00071580008715800087158000871580008BC
:1001000071580008715800087158000871580008AB
:1001100071580008715800080D4B0008715800080C
:10012000715800087158000871580008715800088B
:10013000715800087158000871580008715800087B
:10014000715800087158000871580008715800086B
:10015000715800087158000871580008715800085B
:10016000715800087158000871580008715800084B
:10017000715800087158000871580008000000000C
:10018000715800087158000871580008715800082B
:10019000715800087158000871580008715800081B
:0C01A000715800087158000871580008E0
:1001B00010B5054C237833B9044B13B10448AFF3A1
:1001C00000800123237010BD1800002000000000F3
:1001D000E458000808B5034B1BB103490348AFF3CB
:1001E000008008BD000000001C000020E45800084A
:1001F00053B94AB9002908BF00281CBF4FF0FF318E
:100200004FF0FF3000F07AB9ADF1080C6DE904CE83
:1002100000F006F8DDF804E0DDE9022304B07047E1
:100220002DE9F0478C460D460446089E002B51D11F
:100230008A4217466DD9B2FA82FEBEF1000F0BD08A
:10024000CEF1200C01FA0EF520FA0CFC02FA0EF7A2
:100250004CEA050C00FA0EF44FEA174A250CBCFBD9
:10026000FAF81FFA87F90AFB18CC45EA0C4508FB97
:1002700009F3AB420AD9ED1908F1FF3280F023816E
:10028000AB4240F22081A8F102083D44ED1AA4B22D
:10029000B5FBFAF00AFB105544EA054400FB09F9E6
:1002A000A14509D9E41900F1FF3380F00A81A14585
:1002B00040F2078102383C44A4EB090440EA0840BC
:1002C0000021002E61D024FA0EF400233460736004
:1002D000BDE8F0878B4207D9002E54D0002186E874
:1002E00021000846BDE8F087B3FA83F1002940F009
:1002F0008E80AB4202D3824200F2FA80841A65EB10
:1003000003050120AC46002E3FD086E81010BDE862
:10031000F08712B90127B7FBF2F7B7FA87FEBEF1F3
:10032000000F34D1EB1B3A0C1FFA87FC0121B3FB01
:10033000F2F8250C02FB183345EA03450CFB08F3E1
:10034000AB4207D9ED1908F1FF3002D2AB4200F2FF
:10035000D1808046ED1AA3B2B5FBF2F002FB105536
:1003600043EA05440CFB00FCA44507D9E41900F15D
:10037000FF3302D2A44500F2B8801846A4EB0C0467
:1003800040EA08409DE731463046BDE8F087CEF1AF
:10039000200405FA0EF307FA0EF720FA04F83A0CD7
:1003A00025FA04F448EA0308B4FBF2F14FEA1845D1
:1003B00002FB11441FFA87FC45EA044501FB0CF3DC
:1003C000AB4200FA0EF409D9ED1901F1FF3080F0CB
:1003D0008A80AB4240F2878002393D44EB1A1FFA13
:1003E00088F5B3FBF2F002FB103345EA034500FB4E
:1003F0000CF3AB4207D9ED1900F1FF386FD2AB42D5
:100400006DD902383D44EB1A40EA01418FE7C1F152
:10041000200722FA07F88B4005FA01F448EA0303A3
:1004200020FA07FE4FEA134CFD404EEA040EB5FBDE
:10043000FCF94FEA1E440CFB19551FFA83F844EAF5
:10044000054509FB08F4AC4202FA01F200FA01FA90
:1004500008D9ED1809F1FF3043D2AC4241D9A9F1D6
:1004600002091D442D1B1FFA8EFEB5FBFCF00CFB90
:1004700010554EEA054400FB08F8A04507D9E418DA
:1004800000F1FF3529D2A04527D902381C4440EAA3
:100490000940A4EB0804A0FB02894C45C6464D4622
:1004A00015D312D056B1BAEB0E0364EB050404FA6F
:1004B00007F7CB401F43CC40376074600021BDE894
:1004C000F0871846F8E69046E0E6C245EAD2B8EB77
:1004D000020E69EB03050138E4E72846D7E74046FA
:1004E00091E78146BEE7014678E702383C4445E79C
:1004F000084608E7A8F102083D442BE7704700BF13
:1005000008B50B4B1A6842F400721A601A6842F47C
:1005100080621A601A6842F480721A60032000F048
:100520002FF8002004F0AEFA04F08AFA002008BD8B
:10053000003C0240034A044B11681B780B441360D3
:10054000704700BF4049002000000020014B1868A0
:10055000704700BF4049002038B50446FFF7F6FF5A
:10056000631C1CBF054B1B78054618BFE418FFF73A
:10057000EDFF401B8442FAD838BD00BF00000020C8
:10058000074AD36823F4E0631B041B0C43F0BF63EA
:10059000000243F4003300F4E0600343D36070478B
:1005A00000ED00E0174B30B5DC68C4F30224C4F161
:1005B0000703251D042B28BF0423062D4FF001053A
:1005C00005FA03F303F1FF338CBF033C0024194009
:1005D000A14005FA04F4013C2240002842EA01024D
:1005E0004FEA0212ADBF00F1604000F00F00064B71
:1005F00000F56140B5BFD2B2D2B21A5480F80023E0
:1006000030BD00BF00ED00E014ED00E0002808DB85
:100610004209012300F01F0003FA00F0014B43F8E8
:100620002200704700E100E02DE9F04F85B00B6833
:10063000DFF8C4816E4ADFF8C491019300234FF0C4
:10064000010E019C0EFA03FE0EEA0406B64540F0C8
:10065000B6804C6824F01007022F16D14FEAD30A57
:1006600000EB8A0A03F0070BDAF820504FEA8B0BF5
:100670004FF00F0C0CFA0BFC25EA0C0C0D6905FA77
:100680000BF545EA0C05CAF820504FEA430A03254A
:10069000D0F800B005FA0AF5ED4304F0030C0BEABC
:1006A000050B0CFA0AFC013F4CEA0B0C012FC0F8B9
:1006B00000C011D8876807EA050BCF6807FA0AFC63
:1006C0004CEA0B078760476827EA0E0EC4F3001751
:1006D0009F4047EA0E074760C7683D408F6807FAAA
:1006E0000AF73D43C560E50069D54FF0000BCDF832
:1006F0000CB0D8F844703F4D47F48047C8F84470B8
:10070000D8F8447007F480470397039F23F003074A
:1007100007F1804707F59C3703F0030CD7F808A0D2
:100720004FEA8C0C4FF00F0E0EFA0CFEA8422AEA8C
:100730000E0E4BD005F58065A84249D005F58065C1
:10074000A84247D005F58065A84245D005F58065EB
:10075000A84243D0484543D005F50065A84241D0A2
:1007600005F58065A8423FD005F58065A8423DD0DB
:1007700005F58065A84214BF0A25092505FA0CF580
:1007800045EA0E05BD601568F74314F4803F0CBFC1
:100790003D4035431560556814F4003F0CBF3D40A3
:1007A00035435560956814F4801F0CBF3D403543B8
:1007B0009560D568A40254BF3D403543D5600133F0
:1007C000102B7FF43CAF05B0BDE8F08F5D46D5E758
:1007D0000125D3E70225D1E70325CFE70425CDE79F
:1007E0000525CBE70625C9E70725C7E70825C5E79F
:1007F000003C01400000024000380240001402406A
:100800000369194214BF0120002070470AB18161B9
:1008100070470904FBE7436931EA030308BF090491
:10082000816170472DE9F341044618B9012002B0F7
:10083000BDE8F0810368DD0710D42368980758D419
:1008400023681A0700F19A8023685B0700F1B880DB
:10085000A269002A40F019810020E8E7A64B9A68B7
:1008600002F00C02042A07D09A6802F00C02082A4F
:100870000AD15B68590207D59F4B1B689A03DCD5E8
:100880006368002BD9D1D1E763689B4DB3F5803FF6
:1008900011D12B6843F480332B60FFF757FE964D40
:1008A00006462B689B03C8D4FFF750FE801B6428C4
:1008B000F7D90320BBE7B3F5A02F04D12B6843F48D
:1008C00080232B60E5E72A6822F480322A602A68B8
:1008D00022F480222A60002BDFD1FFF737FE064684
:1008E0002B689F03A9D5FFF731FE801B6428F7D939
:1008F000DFE7814B9A6812F00C0F07D09A6802F07C
:100900000C02082A11D15B685E020ED47A4B1A6879
:10091000950702D5E268012A88D11A68216922F078
:10092000F80242EAC1021A608AE7E268734BB2B188
:1009300001221A60FFF70AFE6F4D06462B689807E2
:1009400007D52B68226923F0F80343EAC2032B6022
:1009500076E7FFF7FBFD801B0228EFD9A9E71A60B5
:10096000FFF7F4FD644D06462B6899077FF568AFE5
:10097000FFF7ECFD801B0228F6D99AE76269604B0D
:100980007AB101221A60FFF7E1FD5B4D06466B6FFD
:100990009F073FF559AFFFF7D9FD801B0228F6D915
:1009A00087E71A60FFF7D2FD534D06466B6F980735
:1009B0007FF54AAFFFF7CAFD801B0228F6D978E71A
:1009C0004D4B1A6C12F0805228D101921A6C42F0F1
:1009D00080521A641B6C03F080530193019B012623
:1009E000484D2B68D9051BD5A368434D012B27D152
:1009F0002B6F43F001032B67FFF7A8FD3E4D074621
:100A000041F288382B6F9B0739D5002E3FF420AF79
:100A1000394A136C23F08053136419E70026DFE78B
:100A20002B6843F480732B60FFF790FD07462B681B
:100A3000DA05D9D4FFF78AFDC01B0228F7D938E7B9
:100A4000052B04D12B6F43F004032B67D0E72A6FEB
:100A500022F001022A672A6F22F004022A67002B83
:100A6000CAD1FFF773FD41F2883807462B6F98070C
:100A7000CBD5FFF76BFDC01B4045F7D919E7FFF752
:100A800065FDC01B4045BDD913E71B4DAB6803F0A6
:100A90000C03082B3FF4CAAE1B4E0023022A33601E
:100AA00034D1FFF753FD07462B6899011ED4226A03
:100AB000E3691343626A43EA8213E26A43EA026328
:100AC000A26A0D4C5208013A43EA02436B600123CB
:100AD0003360FFF73BFD054623689A013FF5BCAE46
:100AE000FFF734FD401B0228F6D9E2E6FFF72EFDA2
:100AF000C01B0228D8D9DCE600380240000047427B
:100B0000800E47420070004060004742FFF71EFD24
:100B100004462B689B017FF59FAEFFF717FD001B76
:100B20000228F6D9C5E600BF134908B58B6803F063
:100B30000C03042B03D0082B03D0104808BD104829
:100B400008BD4A684B68496813F4800314BF0C4819
:100B50000A48C1F3881118BF002302F03F02A1FB2D
:100B60000001FFF745FB044B5B68C3F3014301330E
:100B70005B00B0FBF3F008BD003802400024F40035
:100B800040787D012DE9F0410D46044610B9012061
:100B9000BDE8F081444B1A6802F00F028A4228D364
:100BA00021688F072DD4C80740D43F4B1A6802F044
:100BB0000F02954266D3226851076CD4130707D5FC
:100BC0003A4A2169936823F4604343EAC10393607E
:100BD000FFF7AAFF354B364A9B68C3F30313D35C78
:100BE000D840344B1860002003F04CFF0020BDE8D3
:100BF000F081CAB21A701B6803F00F039942C6D184
:100C0000CEE72A4B11F0040F1EBF9A6842F4E0525F
:100C10009A600E0742BF9A6842F460429A609A68EE
:100C2000A06822F0F00202439A60BCE762681F4BA2
:100C3000012A1DD11B6813F4003FA8D01B4EB368D6
:100C400023F003031343B360FFF780FC41F28838BD
:100C50000746B368626803F00C03B3EB820FA4D0BD
:100C6000FFF774FCC01B4045F3D90320BDE8F081B9
:100C7000911E01291B6802D813F0007FDDE713F0F5
:100C8000020FDAE7EAB21A701B6803F00F039D4205
:100C90007FF47DAF8FE70549E0688B6823F4E0536C
:100CA00003438B608AE700BF003C024000380240EB
:100CB000A75A00080C000020044B054A9B68C3F3A8
:100CC0008223D35C034A1068D84070470038024042
:100CD000B75A00080C0000200F2303600B4B9A68E2
:100CE00002F0030242609A6802F0F00282609A68A1
:100CF00002F4E052C2609B68DB0803F4E053036136
:100D0000034B1B6803F00F030B6070470038024071
:100D1000003C02400368F7B59A07044640F088801B
:100D2000236813F00C0F44D0804D814E00232B60BC
:100D3000FFF70CFC074633689B0000F1BD8021687B
:100D40004F0715D56369D6F8882020691B0602F085
:100D5000E04243EA80131343C6F88830D6F88C305B
:100D6000226A23F4F853013A43EA0223C6F88C308E
:100D70000E0714D56E4AA369D2F8881020691B07A4
:100D800001F0706143EA80130B43C2F88830D2F857
:100D90008C30616A23F440330B43C2F88C3001235A
:100DA0002B60FFF7D3FB624D06462B68980040F19D
:100DB0008A8023689A0631D5002301935C4B5D4DF0
:100DC0001A6C42F080521A641B6C03F0805301933A
:100DD000019B2B6843F480732B60FFF7B7FB06463B
:100DE0002B68D90576D5524D2B6F13F4407377D10C
:100DF000A36A03F44072B2F5407F4D4A40F09180FF
:100E0000916823F0704021F4F81120F44070014300
:100E10009160116FC3F30B030B431367206810F04D
:100E200010001FBF444B94F82C201A60002041E0B2
:100E3000424D3F4E00232B60FFF788FB0746336887
:100E40001B0131D42268D70706D5A36861681B0748
:100E500043EA8113C6F88430900715D5344AE36815
:100E6000D2F8841060681B0601F0E04143EA801369
:100E70000B43C2F88430D2F88C10E36921F01F01D3
:100E8000013B0B43C2F88C3001232B60FFF75EFB64
:100E9000274D06462B6819013FF542AFFFF756FB79
:100EA000801B0228F6D904E0FFF750FBC01B022884
:100EB000C5D9032003B0F0BDFFF748FBC01B0228D3
:100EC0007FF639AFF5E7FFF741FB801B02287FF67D
:100ED0006CAFEEE7FFF73AFB801B022880D9E8E70A
:100EE000A26A02F44072934282D02B6F144A01210D
:100EF000116023F44073002111602B672B6FDA0718
:100F00007FF576AFFFF722FB41F2883706462B6F5D
:100F10009B073FF56DAFFFF719FB801BB842F6D971
:100F2000C7E7916821F4F81172E700BF70004742EB
:100F30000038024000700040E0114742680047421C
:100F4000400E474210B5044690B1437903F0FF02CA
:100F500013B9027103F07CF92268022363711368EC
:100F600043F004031360002001236371A06010BDEF
:100F7000012010BDF8B50379012B04460E4625D09B
:100F800063790120834220711DD102236371FFF731
:100F9000DDFA07462268556815F0010508D0936808
:100FA000E360336001236371002000232371F8BDE7
:100FB000FFF7CCFAC01B0228ECD901200223607194
:100FC0002571A360F8BD0423A360EEE70220F8BDFD
:100FD00010B500F10C010446FFF7CCFF08B9E0683A
:100FE00010BD002010BD026838B5D36823F0A003FF
:100FF000D3600446FFF7AAFA05462368DB689B0620
:1010000001D5002038BDFFF7A1FA401BB0F57A7F6B
:10101000F3D9032038BD38B50368DA6852060446B0
:1010200001D5002038BD4FF0FF32DA60FFF78EFAAD
:1010300005462368DB685B06F3D4FFF787FA401B9D
:10104000B0F57A7FF5D9032038BD38B50446B8B17C
:10105000437F03F0FF0213B9027703F059F902232B
:1010600063772368CA225A6253225A622046FFF7E6
:10107000D2FF2368054628B1FF225A620423637712
:1010800001252EE09A68206922F4E00222F0400255
:101090009A60626899680243606902430A439A60F1
:1010A000E2681A611A69A16842EA01421A61DA68C3
:1010B00022F08002DA609B689B0605D42046FFF789
:1010C00092FF08B12368D7E72368A1691A6C22F45C
:1010D00080221A641A6C0A431A64FF225A6201239E
:1010E0006377284638BD0023092803D840EA031057
:1010F000C0B270470A380133C0B2F5E7F8B5037FD4
:10110000012B06460F464FF002052FD0012303772F
:101110000368457708784D788C789B6842BB13F05C
:10112000400308BFCB70FFF7DEFF01462846FFF7FC
:10113000DAFF02462046FFF7D6FFFB7840EA03407D
:1011400040EA014040EA02243368CA225A6253222C
:101150005A623046FFF75FFF33680546A8B1FF22A9
:101160005A62042373770023337701252846F8BD9C
:1011700013F040034FEA052508BFCB7045EA004055
:101180002043CC7840EA0444DEE704F07F3424F0C6
:10119000FE441C609A68386922F480229A60FA68DA
:1011A000996802430A439A60DA6822F08002DA60A2
:1011B0009B689B060AD43046FFF715FF30B13368B1
:1011C000FF225A62042373773577CEE73368FF2214
:1011D0005A620123737700233377C7E7F8B5037F9B
:1011E000012B05464FF0020630D0012303774677E6
:1011F0004B78C8788E780C78002A48D1DA0603D567
:1012000023F010030A334B70FFF76DFF0746487851
:10121000FFF769FF02463046FFF765FF40EA4430BA
:1012200040EA074040EA02242B68CA225A6253224D
:101230005A622846FFF7EFFE2B68064640B1FF22B0
:101240005A6204236B7700232B7701263046F8BDC2
:1012500024F07F4424F0C0045C60DA6822F080024D
:10126000DA609B689B060AD42846FFF7BCFE30B1C3
:101270002B68FF225A6204236B772E77E5E72B68F1
:10128000FF225A6201236B7700232B77DEE71B02D4
:1012900043EA0040304340EA4434C5E7037F012B72
:1012A0002DE9F04104460E4617464FF0020029D0C2
:1012B0000123237723686077CA225A6253225A6235
:1012C0009B685A0520D42268936823F48063936056
:1012D000FFF73CF980462368DD6815F0040529D046
:1012E0009A6822F007029A609A683A439A605E61AF
:1012F0009A6842F480629A60FF225A6200200123B9
:1013000063772077BDE8F081FFF720F90546236871
:10131000DB685B07D7D5FFF719F9401BB0F57A7F7B
:10132000F5D92368FF225A620320002360772377D0
:10133000BDE8F081FFF70AF9A0EB0800B0F57A7F6D
:10134000C9D92368FF2203205A6260772577BDE858
:10135000F0810368503343F821207047036850330D
:1013600053F82100704770B50E461546044610B379
:1013700090F8493003F0FF021BB980F8482002F0D2
:10138000B5F804F10801206800F050F9A26820685F
:10139000314600F081F9236BA2686068294600F0AD
:1013A000A1F9A168226852F8213043F0010342F804
:1013B0002130002070BD012070BD70470368DA68DD
:1013C00042F00102DA609A6802F00702062A1EBFA4
:1013D0001A6842F001021A60002070477047704797
:1013E0007047704703681A69910710B504460ED517
:1013F000DA6892070BD56FF002021A619B6901222D
:101400009B07027777D0FFF7EAFF00232377236853
:101410001A69500710D5DA6851070DD56FF004022C
:101420001A619B69022213F4407F2277204668D01C
:10143000FFF7D5FF0023237723681A6912070FD51A
:10144000DA6810070CD56FF008021A61DB69042214
:101450009907227720465AD0FFF7C1FF0023237750
:1014600023681A69D20610D5DA68D0060DD56FF058
:1014700010021A61DB69082213F4407F22772046AC
:101480004BD0FFF7ACFF0023237723681A69D107FD
:1014900008D5DA68D20705D56FF001021A61204637
:1014A00002F0BAFE23681A69100608D5DA68110638
:1014B00005D56FF080021A61204600F0B6F8236867
:1014C0001A69520608D5DA68500605D56FF0400251
:1014D0001A612046FFF785FF23681A69910622D515
:1014E000DA6892061FD56FF0200220461A61BDE827
:1014F000104000F099B8FFF771FF2046FFF770FF2A
:1015000083E7FFF76BFF2046FFF76AFF92E7FFF7DD
:1015100065FF2046FFF764FFA0E7FFF75FFF204667
:10152000FFF75EFFAFE710BD304A0368904212D06C
:10153000B0F1804F0FD0A2F57C4290420BD002F563
:101540008062904207D002F58062904203D002F59B
:101550007842904219D14A6823F070031343234A1A
:10156000904229D0B0F1804F26D0A2F57C42904223
:1015700022D002F5806290421ED002F58062904235
:101580001AD002F57842904216D0194A904213D0F0
:1015900002F5806290420FD002F5806290420BD03B
:1015A000A2F59832904207D002F58062904203D0B3
:1015B00002F58062904203D1CA6823F4407313435A
:1015C0004A6923F08003134303608B68C3620B688E
:1015D0008362064B984203D003F58063984201D1A1
:1015E0000B69036301234361704700BF00000140A2
:1015F0000040014010B50446A0B190F83D3003F022
:10160000FF021BB980F83C20FFF7D7FE022384F8C5
:101610003D302068211DFFF787FF012384F83D300E
:10162000002010BD012010BD70477047F0B50C6858
:101630008E6850F824304A68164F4D6B1F4046EABA
:101640000203CA6813430A6913434A6913438A6948
:101650001343CA6913430A6A13434A6A13438A6AE3
:101660001343CA6A1343CA6B13430A6B13432B43D6
:101670003B43082E08BF43F04003B5F5801F40F8F8
:10168000243004D11CB1036843F4801303600020AC
:10169000F0BD00BF8000E0FF70B50B688E690C697B
:1016A00033434E6843EA06138E6800EB820243EA36
:1016B0000623CE6849695568013C240543EA064380
:1016C0002343023905F0404543EA01632B4353604D
:1016D0000368DB0241BF436823F470031C4344608A
:1016E000002070BDB3F5804F30B514D150F82230D2
:1016F0000A4C8D691C400B682B434D6843EA051367
:101700008D68C96843EA052343EA0143234340F84F
:101710002230002030BD6FF07043F8E70000F0CFBA
:10172000EFF3058313B16FF005007047EFF31083FB
:10173000002BF8D1074B1868022806D1EFF311836C
:10174000002BF0D14FF0FF3070470028FAD1012272
:101750001A6070479002002010B5EFF3058313B1B3
:101760006FF0050010BDEFF31084002CF8D1094B89
:101770001A68022A06D1EFF31183002BF0D14FF043
:10178000FF3010BD012AFAD102221A6001F014F9CB
:10179000204610BD90020020F0B587B0144600220C
:1017A0000B460592EFF3058272BBEFF310825ABB32
:1017B000284A1268022A02D1EFF3118222BB18B321
:1017C00000228DF81320002C3CD0216809B90DF1BE
:1017D0001301A569002D08BF18256A1E372A2F4658
:1017E00035D86268D20732D4666986B1B208D4F8B7
:1017F00008E0D4F80CC0BEF1000F0AD0BCF15B0FBA
:1018000002D9246904B1AEB9059807B0F0BD8022B1
:10181000EDE7BCF1000FF7D12469002CF4D105AC41
:101820000194009792B201F058F801281CBF0023E0
:101830000593E9E7CDF808E00194009501F016F86A
:101840000590E1E7182780220DF11301E7E700205A
:10185000DBE700BF9002002008B5EFF3058313B16A
:101860006FF0050008BDEFF31083002BF8D1064B95
:101870001B68022B03D1EFF31183002BF0D110B1C1
:1018800001F03CFA002008BD9002002073B5144618
:10189000EFF305831BB10025284602B070BDEFF3BE
:1018A0001083002BF7D11C4B1B68022B03D1EFF3E5
:1018B0001183002BEFD10028EDD00029EBD004B329
:1018C000A368E268ABB14F2AE5D92269002AE2D0C9
:1018D000666901FB00F5AE42DDD30025009500F0FE
:1018E000E3FB05460028D6D02168284600F00CFE10
:1018F000D2E7002ACFD12369002BCCD16369002B1A
:10190000C9D1002200F01DFC05460028C3D0002CE0
:10191000EAD12146E9E700BF90020020034B0360B3
:10192000034B0B6080231360704700BF340200201C
:1019300034000020034B0360034B0B604FF48073B3
:1019400013607047940600209402002000F1080301
:1019500043604FF0FF32C360036100238260036085
:10196000704700230361704743684B609A688A6040
:101970009A68516099600368086101330360704799
:101980000A68531C30B50AD103695A684A609160ED
:101990008B605960036808610133036030BD00F15A
:1019A00008035C682568AA42EFD32346F9E741683B
:1019B000826803698A60826851605968884208BFFA
:1019C0005A60002202611A68013A1A60186870476A
:1019D00082B0002301930D4B1B68013308D04FF0F8
:1019E000500383F31188BFF36F8FBFF34F8FFEE770
:1019F0004FF0500383F31188BFF36F8FBFF34F8F06
:101A0000019B002BFCD002B0704700BF04000020F7
:101A100008480068006880F308884FF0000080F3F1
:101A2000148862B661B6BFF34F8FBFF36F8F00DFCC
:101A300000BF000008ED00E0DFF80C00016841F491
:101A4000700101607047000088ED00E04FF0807386
:101A500040F8043C074B40F80C3C21F001016FF0CA
:101A6000020340F8081C40F8202C40F8243C44387D
:101A7000704700BFD11900080000000000000000FE
:101A8000074B19680868B0E8F04F80F30988BFF386
:101A90006F8F4FF0000080F311887047AFF3008024
:101AA000104300204FF0500383F31188BFF36F8F72
:101AB000BFF34F8F0A4A13680133012B13600DD116
:101AC000084B1B6813F0FF0F08D04FF0500383F34F
:101AD0001188BFF36F8FBFF34F8FFEE7704700BFD2
:101AE0000400002004ED00E0084A136843B94FF0F9
:101AF000500383F31188BFF36F8FBFF34F8FFEE75F
:101B0000013B13600BB983F3118870470400002078
:101B1000EFF30980BFF36F8F154B1A681EF0100F9B
:101B200008BF20ED108A20E9F04F10602DE9090070
:101B30004FF0500080F31188BFF34F8FBFF36F8FCA
:101B400001F000F94FF0000080F3118809BC19681A
:101B50000868B0E8F04F1EF0100F08BFB0EC108A14
:101B600080F30988BFF36F8F704700BFAFF3008029
:101B70001043002008B54FF0500383F31188BFF3E2
:101B80006F8FBFF34F8F00F069FF18B1034B4FF019
:101B900080521A60002383F3118808BD04ED00E031
:101BA000084A0949002313600B60084B4FF47A710F
:101BB0001B68B3FBF1F30649013B0B60072313607D
:101BC000704700BF10E000E018E000E00C000020CB
:101BD00014E000E0394B3A4A13B51968914208D134
:101BE0004FF0500383F31188BFF36F8FBFF34F8F14
:101BF000FEE71A68334B9A4208D14FF0500383F343
:101C00001188BFF36F8FBFF34F8FFEE72E4B1A780B
:101C1000D2B20192FF221A701B782C4ADBB28DF8E7
:101C200003309DF8033003F050031370284B072254
:101C30001A6000219DF80300000602F1FF340DD464
:101C400001B11A601A68032A11D04FF0500383F3D0
:101C50001188BFF36F8FBFF34F8FFEE79DF803200E
:101C60005200D2B28DF8032001212246E2E712028F
:101C700002F4E0621A60019B134ADBB21370154B49
:101C80001A6842F470021A601A6842F070421A60D0
:101C9000FFF786FF104B00241C60FFF7CDFE0F4AB4
:101CA000136843F040431360FFF7B2FE01F04AF8B7
:101CB000FFF78EFE204602B010BD00BF00ED00E031
:101CC00071C20F4170C20F4100E400E0F006002035
:101CD000F406002020ED00E00400002034EF00E0D6
:101CE000EFF305830F2B0ED9104A9B5C104A127834
:101CF0009A4208D94FF0500383F31188BFF36F8FD6
:101D0000BFF34F8FFEE70B4B0B4A1B68126803F4BF
:101D1000E063934208D94FF0500383F31188BFF377
:101D20006F8FBFF34F8FFEE7704700BFF0E300E017
:101D3000F00600200CED00E0F406002010B50F4B7B
:101D40001A68824218D35C681919884201BF416839
:101D5000184609195960446801198A4207D108498F
:101D600009688A421FBF5168126809194160984288
:101D7000026018BF186010BD1346E1E70843002059
:101D8000F80600202DE9F041044600F059FE3E49D6
:101D90003E4D0B680BBB3E4A56071FBFD01D20F0BF
:101DA000070002F570531B1A14BF02464FF470531C
:101DB0001344083B23F00703364E0B60002070608D
:101DC000326058601860981A1360334B5060186086
:101DD000324B18604FF000432B602F68274216D11A
:101DE000002C41D004F1080358071CBF23F007035F
:101DF000083363B1294A1668B342904607D8254A8A
:101E000015686868834204D809688D4207D10024A8
:101E10002AE02C68002CF7D02A462546F1E72968ED
:101E200014681160C21A102A0FD9E818410708D0A7
:101E30004FF0500383F31188BFF36F8FBFF34F8FC1
:101E4000FEE742606B60FFF779FF13496B68086833
:101E5000F61A1F4386424FF00003C8F8006038BFEF
:101E60000E6008346F602B6000F088FE630708D0B6
:101E70004FF0500383F31188BFF36F8FBFF34F8F81
:101E8000FEE72046BDE8F081F8060020FC42002075
:101E9000FC060020084300200443002000430020EB
:101EA00010B5044670B3184A50F8043C1268134247
:101EB00008D14FF0500383F31188BFF36F8FBFF346
:101EC0004F8FFEE750F8081C41B14FF0500383F3E9
:101ED0001188BFF36F8FBFF34F8FFEE723EA020332
:101EE00040F8043C00F0ACFD084A54F8043C11688A
:101EF000A4F108000B441360FFF720FFBDE8104079
:101F000000F03CBE10BD00BFFC420020004300209A
:101F100010B50446FFF7C6FDA46BFFF7E5FDB4FA64
:101F200084F0400910BD70B51546026C866B0446FE
:101F300042B905689DB9406801F070F865600136E6
:101F4000A66370BD6DB9806803F0B8FCA368226C0D
:101F500013446268A360934201D32368A360002006
:101F6000EDE7C06803F0AAFC236CE26821685B42DD
:101F70001A448A42E2603EBF62689B18E360022D09
:101F8000EDD10EB1013EEAE73046D8E7034610B482
:101F90001A6C084662B1D9685C681144A142D960E4
:101FA00024BF1968D960D9685DF8044B03F086BC7A
:101FB0005DF8044B704770B50446FFF773FD94F865
:101FC000455004F124066DB2002D14DCFF2384F883
:101FD0004530FFF789FDFFF765FD94F8445004F1A3
:101FE00010066DB2002D12DCFF2384F84430BDE8EA
:101FF0007040FFF779BD636A002BE7D0304600F0F0
:102000006FFF08B100F0F4FF013D6DB2DCE723691A
:10201000002BE9D0304600F063FF08B100F0E8FF84
:10202000013D6DB2DEE7000038B50D46044640B90B
:102030004FF0500383F31188BFF36F8FBFF34F8FBF
:10204000FEE7FFF72FFD206CE36B2268A26043439D
:10205000D1181B1A13446160E3600021FF23A163C0
:1020600084F8443084F8453095B9236963B104F1AC
:10207000100000F035FF38B10A4B4FF080521A6063
:10208000BFF34F8FBFF36F8FFFF72EFD012038BDD9
:1020900004F11000FFF75AFC04F12400FFF756FC8E
:1020A000F2E700BF04ED00E013B51C4640B94FF065
:1020B000500383F31188BFF36F8FBFF34F8FFEE799
:1020C00043B94FF0500383F31188BFF36F8FBFF311
:1020D0004F8FFEE74AB1D9B94FF0500383F311880F
:1020E000BFF36F8FBFF34F8FFEE789B14FF05003FF
:1020F00083F31188BFF36F8FBFF34F8FFEE74FF06D
:10210000500383F31188BFF36F8FBFF34F8FFEE748
:1021100050230193019B502BF1D10123002908BFCB
:10212000224684F84630E063216422601946204646
:10213000FFF77AFF9DF8103084F84C30204602B04B
:1021400010BDF8B50D461746064640B94FF050038E
:1021500083F31188BFF36F8FBFF34F8FFEE74843C0
:102160005030FFF70FFE044660B1002380F8463080
:1021700055B92060E663256401212046FFF754FF2E
:1021800084F84C702046F8BD00F150030360F1E77D
:102190002DE9FF47894601921F46044640B94FF09A
:1021A000500383F31188BFF36F8FBFF34F8FFEE7A8
:1021B000002940F08880036C002B00F084804FF0F1
:1021C000500383F31188BFF36F8FBFF34F8FFEE788
:1021D000019E002E00F082804FF0500383F311889F
:1021E000BFF36F8FBFF34F8FFEE7019D1DB9FFF760
:1021F0007BFC002058E016B902A800F0B1FEFFF702
:1022000073FC00F01DFCFFF74DFC94F84430FF2BED
:1022100008BF84F8448094F84530FF2B08BF84F849
:102220004580FFF761FC01A902A800F0A5FE002887
:1022300043D1FFF737FCA66BE56BFFF755FCAE42C9
:1022400035D1019904F1100000F012FE2046FFF78D
:10225000B2FE00F093FC38B94FF08053CAF800305A
:10226000BFF34F8FBFF36F8F0126FFF71BFCA26BED
:10227000E36B9A4201D3022FB7D13A464946204632
:10228000FFF751FE636A1BB104F1240000F028FE41
:1022900038B1194B4FF080521A60BFF34F8FBFF324
:1022A0006F8FFFF721FC012004B0BDE8F0872046C6
:1022B000FFF781FE00F062FCD6E72046FFF77BFEC9
:1022C00000F05CFC95E7022F02D1E36B012B0AD1F1
:1022D00000F094FE00283FF47BAF00264FF000088A
:1022E000DFF814A0C1E74FF0500383F31188BFF368
:1022F0006F8FBFF34F8FFEE704ED00E02DE9F84349
:10230000884691461F46044640B94FF0500383F378
:102310001188BFF36F8FBFF34F8FFEE709BB036CCC
:10232000FBB14FF0500383F31188BFF36F8FBFF3FE
:102330004F8FFEE704F1240000F0D2FD002834D0D6
:10234000B9F1000F31D00120C9F8000086F31188DF
:10235000BDE8F88301356DB284F8455025E00020D2
:10236000F4E7022F02D1E36B012B20D1FFF7B8FC79
:10237000EFF311864FF0500383F31188BFF36F8F93
:10238000BFF34F8FA26BE36B9A4201D3022FE6D1CA
:1023900094F845503A466DB241462046FFF7C3FDDA
:1023A0006B1CD7D1636A002BC4D10120CEE74FF05C
:1023B000500383F31188BFF36F8FBFF34F8FFEE796
:1023C0002DE9F04385B088460192044640B94FF0AC
:1023D000500383F31188BFF36F8FBFF34F8FFEE776
:1023E000002940F08680036C002B00F082804FF0C3
:1023F000500383F31188BFF36F8FBFF34F8FFEE756
:10240000019E002E7AD04FF0500383F31188BFF362
:102410006F8FBFF34F8FFEE7019D1DB9FFF764FB80
:10242000002052E016B902A800F09AFDFFF75CFB0D
:1024300000F006FBFFF736FB94F84430FF2B08BF93
:1024400084F8447094F84530FF2B08BF84F8457039
:10245000FFF74AFB01A902A800F08EFD00283DD13C
:102460002046FFF755FD98B3019904F1240000F0D0
:10247000FFFC2046FFF79FFD00F080FB38B94FF0CE
:102480008053C9F80030BFF34F8FBFF36F8F012621
:10249000FFF708FBA56B002DBED041462046013D4D
:1024A000FFF774FDA563236963B104F1100000F028
:1024B00017FD38B1134B4FF080521A60BFF34F8FA6
:1024C000BFF36F8FFFF710FB012005B0BDE8F0836D
:1024D0002046FFF770FD00F051FBD8E72046FFF7DC
:1024E0006AFD00F04BFB2046FFF712FD0028CED01E
:1024F00096E700F083FD002882D000260027DFF851
:102500000490C5E704ED00E030B5074A002352F817
:10251000335002EBC3041DB942F83310606030BD84
:102520000133082BF3D130BD4449002070B5044677
:102530000D461646FFF7B6FA94F84430FF2B04BF59
:10254000002384F8443094F84530FF2B04BF002367
:1025500084F84530FFF7C8FAA36B2BB932462946F9
:1025600004F1240000F09EFC2046BDE87040FFF717
:1025700022BD00002DE9F0410446FFF793FA2E4BEF
:102580002E4D1A682E4F01321A602E68002E47D148
:102590002C601B68012B1DD1B8191436FFF7D6F932
:1025A000B6F58C6FF8D1DFF8C480264E4046FFF7B1
:1025B000CDF93046FFF7CAF92348FFF7C7F923489A
:1025C000FFF7C4F92248FFF7C1F9224BC3F8008096
:1025D000214B1E60214A136801331360204A636453
:1025E0001168E36A14208B4200FB037004F10401BC
:1025F00088BF1360FFF7B8F9FFF776FA194B1B682D
:1026000063B12B68DA6AE36A9A4207D2164B4FF03D
:1026100080521A60BFF34F8FBFF36F8FBDE8F08118
:10262000104B1B68002BD5D12B68DA6AE36A9A42FB
:1026300098BF2C60CEE700BF7C47002010430020ED
:102640001C430020A8470020C4470020F04700207A
:10265000DC47002014430020184300208C47002052
:1026600090470020D847002004ED00E09447002068
:10267000064A13681968064B19B94FF0FF321A6001
:1026800070471268D268D2685268F8E71443002095
:10269000BC4700202DE9F0470A9C099F96000D4693
:1026A00032468046A521206B994603F012F9236B30
:1026B000043E1E4426F007066B1E04F134020F355B
:1026C000597802F8011B13F8011F09B1AB42F7D189
:1026D000089D372D28BF37254FF0000AE562E564D5
:1026E000201D84F843A0C4F850A0FFF73AF9C5F1C3
:1026F000380504F11800FFF734F9C4F854A0246138
:10270000A561646284F858A04A4641463046FFF706
:102710009DF9206007B13C60BDE8F08710B590F8E6
:10272000593004463BB9006BFFF7BAFB2046BDE8C1
:102730001040FFF7B5BB012BF9D0022B08D04FF0AA
:10274000500383F31188BFF36F8FBFF34F8FFEE702
:1027500010BD000080B5DFF85C80124F124C134DA5
:10276000236863B9124B1B68012BF8D94FF08053D3
:10277000C8F80030BFF34F8FBFF36F8FEEE7FFF75E
:1027800091F9FB68DE68301DFFF711F92B68013BFA
:102790002B602368013B2360FFF7A6F93046FFF763
:1027A000BDFFDDE7F0470020804700207C47002088
:1027B0001C43002004ED00E0F8B5164B164D1E68D2
:1027C0000446286804300F46FFF7F1F8631C2B46D7
:1027D00007D137B1296811480431BDE8F840FFF747
:1027E000C3B834441A68A642546007D90C4A10682A
:1027F0001968BDE8F8400431FFF7C2B8094A10680B
:1028000019680431FFF7BCF8074B1A68944238BFC7
:102810001C60F8BD0448002010430020DC47002065
:102820001843002014430020BC4700204FF0500301
:1028300083F31188BFF36F8FBFF34F8FFEE7000064
:1028400008B508B9FFF7F2FF4269064B9A4201D07A
:10285000002008BD806A044B9842F9D0B0FA80F09D
:10286000400908BDDC470020C447002070B586B091
:102870000B9D0C9C45B94FF0500383F31188BFF3B7
:102880006F8FBFF34F8FFEE744B94FF0500383F3D0
:102890001188BFF36F8FBFF34F8FFEE75C2604965E
:1028A000049E5C2E08D04FF0500383F31188BFF3D1
:1028B0006F8FBFF34F8FFEE72563022584F85950D1
:1028C00005AD01950A9D02940095FFF7E3FE2046B1
:1028D000FFF750FE059806B070BD2DE9F04307469E
:1028E00085B09000884616469946FFF74BFA054694
:1028F000E8B15C20FFF746FA0446A8B1002380F84F
:1029000059300D9B056301930C9B02900093324656
:102910004B4641463846FFF7BDFE2046FFF72AFEEC
:10292000012005B0BDE8F0832846FFF7B9FA4FF063
:10293000FF30F6E770B5044640B94FF0500383F31B
:102940001188BFF36F8FBFF34F8FFEE7164D2A68D4
:10295000904227D0FFF7A6F82046FFF771FFE8B1B5
:10296000261D3046FFF723F8104AE36A11688B42B0
:1029700088BF13600E4A142000FB03203146FEF787
:10298000F3FF2B68E26ADB6A9A4207D3094B4FF0E8
:1029900080521A60BFF34F8FBFF36F8FBDE8704056
:1029A000FFF7A2B870BD00BF104300209047002081
:1029B0001C43002004ED00E010B588B0002407AAF5
:1029C00006A905A805940694FEF7A8FF059B0293A7
:1029D000069B019300942346079A14491448FFF775
:1029E00045FFA0B908B010BD4FF0500383F3118824
:1029F000BFF36F8FBFF34F8F0E4B4FF0FF321A6054
:102A00000D4B18600D4B1C60FFF7E4F8EAE700F08F
:102A100099FB0128E8D00130E4D14FF0500383F353
:102A20001188BFF36F8FBFF34F8FFEE7FC5800088C
:102A300055270008BC470020D84700200448002044
:102A4000024A136801331360704700BF88470020B3
:102A5000014B1868704700BF044800202DE9F84F6B
:102A60003B4B1B68002B51D13A4B1C6801341C6056
:102A7000BCB9394B1A68126842B14FF0500383F366
:102A80001188BFF36F8FBFF34F8FFEE7334A19688A
:102A9000106818601160324A136801331360FFF741
:102AA000E7FD304D304F2B689C424FF0000B3CD37C
:102AB000DFF8A480DFF8C090D8F80020126862BB6D
:102AC0004FF0FF322A6030E006F1040A5046FEF76C
:102AD0006EFFB16A19B106F11800FEF768FFF06ADF
:102AE000D9F80010214B88424FF0140288BFC9F872
:102AF0000000514602FB0030FEF736FF3868F16AED
:102B0000C26A914228BF4FF0010BD5E7184A1368FB
:102B1000013313604FF0000B11E0D8F80020D268A9
:102B2000D66871688C42CFD229603A680F4BD16A5F
:102B300014224A439A58022A28BF4FF0010B0D4A2B
:102B40001268002A18BF4FF0010B5846BDE8F88FF5
:102B50008847002004480020144300201843002028
:102B6000C0470020BC470020104300201C43002029
:102B70008447002008480020904700202DE9F041BC
:102B80002F4C236843B94FF0500383F31188BFF3F0
:102B90006F8FBFF34F8FFEE7FEF784FF2368013B83
:102BA000236024682CB10024FEF79EFF2046BDE878
:102BB000F081244B1B68002BF5D0234E234FDFF808
:102BC000A0803368E3B90CB1FFF752FD204D2C68AB
:102BD00044B1204E0127FFF741FF00B13760013CAF
:102BE000F9D12C601B4B1B68002BDCD01A4B4FF02B
:102BF00080521A60BFF34F8FBFF36F8F0124D3E76A
:102C0000F368DC68251D04F11800FEF7D0FE2846A5
:102C1000FEF7CDFEE36A3A681420934200FB03807E
:102C2000294688BF3B60FEF79FFE0C4BE26A1B689B
:102C3000DB6A9A4222BF074B01221A60C1E700BF3C
:102C4000884700207C470020C44700209047002090
:102C5000844700200848002004ED00E010430020D5
:102C60001C43002038B540B94FF0500383F311885E
:102C7000BFF36F8FBFF34F8FFEE741B94FF05003A3
:102C800083F31188BFF36F8FBFF34F8FFEE7184BAD
:102C90001C6844B14FF0500383F31188BFF36F8F6A
:102CA000BFF34F8FFEE7FFF7CBFE124B02681D68A4
:102CB000954201EB020317D29A4203D99D422CBFE1
:102CC0000024012403601CB10021581BFFF774FD90
:102CD000FFF754FF38B9084B4FF080521A60BFF32A
:102CE0004F8FBFF36F8F38BD9A42E7D90124E9E7D0
:102CF000884700200448002004ED00E008B540B9F2
:102D00000E4B4FF080521A60BFF34F8FBFF36F8F9F
:102D100008BD0B4B196841B14FF0500383F3118884
:102D2000BFF36F8FBFF34F8FFEE7FFF789FEFFF70B
:102D300043FDFFF723FF0028E2D008BD04ED00E0CB
:102D400088470020184B1A68184BF0B512B10122C1
:102D50001A60F0BD164D1A60164A2B6814271646E5
:102D600007FB03F1501854588CB14468083164686B
:102D700044600A44944204BF62684260142202FB29
:102D800003625268D1680C4A11602B60F0BD43B9F0
:102D90004FF0500383F31188BFF36F8FBFF34F8F52
:102DA000FEE7013BDCE700BF884700200848002021
:102DB000904700201C4300201043002070B50446BB
:102DC000254EFEF76FFE04B93468251D2846FEF730
:102DD000EEFDA36A1BB104F11800FEF7E8FD2946D9
:102DE0001E481F4DFEF7C0FD94F85830012B04BF5C
:102DF000002384F85830FEF777FE2A682AB1FEF7E0
:102E000051FEFFF735FCFEF76FFE33689C4222D17E
:102E10002B68A3B1134B1B6843B14FF0500383F3EE
:102E20001188BFF36F8FBFF34F8FFEE70E4B4FF04C
:102E300080521A60BFF34F8FBFF36F8F70BD074A88
:102E400011680A4A1268914201D1336070BDBDE831
:102E50007040FFF777BF70BD10430020DC470020B3
:102E6000D84700208847002004ED00E07C47002080
:102E700010B50C4640B94FF0500383F31188BFF3EF
:102E80006F8FBFF34F8FFEE7054B19681831FEF7C0
:102E900077FD20460121BDE81040FFF78DBC00BF43
:102EA0001043002038B50D46144640B94FF050038A
:102EB00083F31188BFF36F8FBFF34F8FFEE7074B8C
:102EC00019681831FEF750FD002C21460CBF28462A
:102ED0004FF0FF30BDE83840FFF76EBC10430020D4
:102EE00038B5C368DC6844B94FF0500383F31188E8
:102EF000BFF36F8FBFF34F8FFEE704F1180528462D
:102F0000FEF755FD104B1B68DBB9251D2846FEF763
:102F10004EFD0E4AE36A11688B4288BF13600C4A6B
:102F20001420294600FB0320FEF71EFD094BE26A30
:102F30001B68DB6A9A4283BF074B012018600020A0
:102F400038BD29460548EFE7884700209047002014
:102F50001C4300201043002008480020C4470020E4
:102F6000034B1B680360034B1B684360704700BF43
:102F7000C04700200448002070B50C46054640B903
:102F80004FF0500383F31188BFF36F8FBFF34F8F60
:102F9000FEE741B94FF0500383F31188BFF36F8F01
:102FA000BFF34F8FFEE7FEF77DFD0F4B69681A6890
:102FB0002368581C0ED00D482E680068864201D048
:102FC0008A420ED2521A9A4209D29B1A236028468C
:102FD000FFF7C6FF0024FEF787FD204670BD0023E3
:102FE00023600124F7E700BF04480020C047002009
:102FF000014B01221A60704708480020054B1B68EE
:1030000033B1054B1B68002B0CBF0220002070471A
:1030100001207047D84700208847002038B5044673
:1030200008B9002038BD1B4B1B68984208D04FF0F0
:10303000500383F31188BFF36F8FBFF34F8FFEE709
:10304000036D43B94FF0500383F31188BFF36F8FC3
:10305000BFF34F8FFEE7C16AC26C013B914203652B
:10306000DFD0002BDDD1051D2846FEF7A0FCE36C68
:10307000E362C3F13802A261074A11688B4288BF3C
:103080001360064A142000FB03202946FEF76CFC5F
:10309000012038BD10430020904700201C43002031
:1030A000F7B5114CFEF7FEFC2568BDB90F4F104E69
:1030B0003846FEF74BFC3046FEF748FC0D4B0E4AF7
:1030C0001F600E4B10211E600A2000950C4BFEF76E
:1030D000EBFF206010B10B49FFF716FA03B0BDE813
:1030E000F040FEF701BD00BF30490020B448002089
:1030F000C84800200C480020144800201048002038
:10310000E048002001590008914208B54160006183
:103110000AD8D21A83699A420DD2084B011D186849
:10312000FEF72EFC002008BD9A4201D2994202D23D
:10313000011D034BF3E7012008BD00BF104800202C
:103140000C48002010B588B0FFF7AAFF134B1B688E
:1031500043B94FF0500383F31188BFF36F8FBFF370
:103160004F8FFEE7002407AA06A905A80594069438
:10317000FEF7E0FB059B0293069B0193022300935D
:10318000079A074907482346FFF770FB064B18606C
:103190000028DED0012008B010BD00BF304900205B
:1031A00006590008813200083449002030B5154620
:1031B00085B01A46034640B94FF0500383F3118897
:1031C000BFF36F8FBFF34F8FFEE70D4C206880B1C8
:1031D00005298DE8220002930DDCFFF70FFF002385
:1031E000022808BF089A206818BF1A466946FEF7E9
:1031F000CFFF05B030BD00236946FFF77FF8F8E741
:10320000304900202DE9F3411B4D4FF000082B6899
:103210001A6832B9194A11682960136002B0BDE812
:10322000F081DB68DC681E68271D3846FEF7BFFBAF
:10323000636A20469847E369012BE8D1A3693344C8
:103240009E4206D26360246139462868FEF798FBE7
:10325000DDE70023CDF80080324619462046FFF70F
:10326000A5FF0028D3D14FF0500383F31188BFF39B
:103270006F8FBFF34F8FFEE70C48002010480020EF
:103280002DE9F04F724DDFF8D88189B02F462B68B9
:10329000D3F800B0BBF1000F44D0DB68D3F8009046
:1032A000FFF7CEFBFFF7D4FB6A4B1A6890428246C9
:1032B0001E4639D20393FFF7A5FF039B0124C3F8F1
:1032C00000A0002C40F08A80BBF1000F6BD0D145EC
:1032D00000F28280FFF752FC3B68DB68D3F80CB049
:1032E0000BF10400FEF763FBDBF81C30012B1DD152
:1032F000DBF818104B46524649445846FFF704FF86
:10330000A0B1009423464A4621465846FFF74EFF97
:1033100060B94FF0500383F31188BFF36F8FBFF391
:103320004F8FFEE7D946BBE70024C8E7DBF824301F
:1033300058469847DFF82491D9F80000002204A9E4
:10334000FFF73EF80028A2D0049B002B03DA079970
:103350000698059B9847049B002BEDDB069C636950
:1033600013B1201DFEF723FBFFF772FB3368984271
:10337000834601D2FFF746FF049AC6F800B0092A37
:10338000DAD80123934013F4047A4ED113F0C70F17
:1033900027D19B06D0D594F82C30002BCCD12046D9
:1033A000FEF77EFDC8E72C4B1B681A68B2FA82F262
:1033B00052092A4BA9EB0A011868FFF7B7F8FFF783
:1033C000DDFB0028B6D14FF08053C8F80030BFF3C2
:1033D0004F8FBFF36F8FADE72246EAE7FFF7CEFBD3
:1033E000A8E7A169059B5A4619442046FFF78CFEC1
:1033F0000028A1D0636A20469847E369012B9BD13E
:10340000A2690599CDF800A00A44534651462046CA
:10341000FFF7CCFE00288FD14FF0500383F31188C3
:10342000BFF36F8FBFF34F8FFEE70599A16141B9DD
:103430004FF0500383F31188BFF36F8FBFF34F8FAB
:10344000FEE75B465A4659442046FFF75DFE73E7A8
:103450000C480020DC4800201048002030490020A3
:1034600004ED00E010B58EB01C220021684602F089
:1034700030FA1C2200210DEB020002F02AFA1A4851
:103480004FF480514FF0204381624FF4804103603C
:10349000016303F5827346211022436002910023E9
:1034A000112101248360C360036142618361C361B0
:1034B00003624362C36243638363C36343640492EE
:1034C0000F2305910B920C9107AA69460093019373
:1034D00003940793089309930A94FDF744FF08B1F6
:1034E00000F0A4FE0EB010BD84490020F0B587B0F6
:1034F0001422002101A802F0ECF9154B1C6824BB32
:1035000001221A60134B00949A6B134842F0010297
:103510009A639B6B03F001030093009B02274FF615
:10352000807303260C2501A9019302970496059543
:10353000FDF77AF84EF2B37301A908480193029798
:10354000039404960595FDF76FF807B0F0BD00BF32
:10355000384900200038024000100240000C0240B0
:10356000F7B5314D314E324F324CFFF771FA0190C1
:103570002868FFF7DFF93068FFF720FC01F09AF8C0
:1035800001F06EF801220DF103013868FEF718FF13
:103590009DF80330013B032B37D8DFE803F0222CE2
:1035A00002182378042B02D100F0B8FF03E000F0EA
:1035B00089FF03232370204B93F8223A4FF47A714A
:1035C0004B4301A8B3FBF1F1FFF74CFBCCE72378A9
:1035D000032B02D100F076FFEDE700F09FFF0423FC
:1035E000E8E72378022B02D100F0F0FFE3E700F0D8
:1035F000C1FF0123DEE72378012B02D100F0BAFFDF
:10360000D9E700F0E3FF0223D4E72378013B032B43
:10361000D1D801A252F823F0FD350008E9350008A1
:10362000D5350008A93500080C4A0020044A0020BE
:10363000104A0020E4490020144A00202DE9F843F4
:10364000DFF80481394EDFF8049108214046FDF788
:10365000D7F8074688B90346642235493068FEF733
:1036600097FD04463348324900683B466422FEF722
:103670008FFD0546C820FFF741FB04214046FDF7BA
:10368000BFF8074688B9034664222B493068FEF725
:103690007FFD04462748284900683B466422FEF720
:1036A00077FD0546C820FFF729FB4FF40051484637
:1036B000FDF7A6F8074688B9034664221F4930681B
:1036C000FEF766FD04461B481C4900683B46642221
:1036D000FEF75EFD0546C820FFF710FB01211848E4
:1036E000FDF78EF8012811D10023642215493068B6
:1036F000FEF74EFD04460F4812490068002364227D
:10370000FEF746FD0546C820FFF7F8FA1CB921462A
:103710003068FEF789FC25B9064B29461868FEF784
:1037200083FC0A20FFF7EAFA8FE700BF104A002067
:1037300045590008F8490020435900084459000839
:103740000000024046590008001C024000080240E8
:10375000144D80B5144F2E4600F0ECFF01F012F826
:1037600095F8214AC4B9386885F8234AFFF726FB43
:103770000E4B1868FFF722FB0D4B1868FFF71EFB76
:103780000C4B21461868FEF74FFC0B4B1868FFF7EF
:10379000D1F82046FFF712FB96F8220A4008FEF700
:1037A0005BF8D9E7144A0020E8490020084A0020C5
:1037B000044A0020F8490020D84900202DE9F04FA4
:1037C000354C85B0A0464FF00009DFF8F4A04FF06B
:1037D000020B324B8AF800B0186884F8239AFFF77E
:1037E000EDFA00212E482F4D2F4EFDF7B7FD94F82E
:1037F000203AB4F8242A28609B1A10279842377080
:103800003CD22A4AAF21502001F0E0FF284A37700D
:103810009621642001F0DAFF0C23009396210846DC
:1038200003232A6801F090FF94F8202AB4F8243A80
:103830001B48D21A0021FDF78CFD1E4D64220DF1AC
:103840000F012868FEF7BCFD064601F061F8012E65
:10385000BFD188F8216A00F0ADFF00212868FEF78B
:10386000E3FB154B00211868FEF7DEFB134B1868CD
:10387000FFF760F80020FFF7A1FAA6E70C4A9621AF
:10388000642001F0A3FF0C230093962103232A68F0
:10389000084601F059FFD0E7144A00200C4A0020E6
:1038A0004C540020E0490020100000200E59000870
:1038B0001C590008F8490020104A0020044A002042
:1038C000E44900207FB5344D344C354E2868FFF76D
:1038D00075FA64220DF10F013068FEF771FD0128C1
:1038E000F4D19DF80F30032B1CD0042B3FD0012BBB
:1038F00039D12378012B3DD0022B34D1002211463F
:103900002848FDF726FD00212648FDF727FD264B18
:10391000186020230246009364210323282001F02D
:1039200013FF20E02378013BDBB2022B94BF23700E
:10393000207023780BB9022323701C4AA021022097
:1039400001F044FF194AB921022001F03FFF21781C
:10395000174A013901EB810101EB8101A03189B2E4
:10396000022001F033FF0120FDF776FFADE7237859
:103970000133D9E700F01EFF0E4B00211868FEF757
:1039800053FB00213068FEF74FFB2868FEF7D2FF9B
:103990000020FFF713FAE6E7044A002008000020A1
:1039A000F84900204C540020E0490020C05900088C
:1039B000C5590008104A002073B5104D104E2868F4
:1039C00064220DF10701FEF7FBFC01280446F6D145
:1039D00000F0F0FE00213068FEF726FB0021286889
:1039E000FEF722FB074B1868FEF7A4FF0020FFF745
:1039F000E5F92046FDF730FFE1E700BFF849002078
:103A0000104A0020044A0020F0B56E4C6E4D85B07F
:103A100026462068FFF7D2F964220DF10F012868CD
:103A2000FEF7CEFC0128F4D19DF80F30013B032BAB
:103A300023D8DFE803F02A840226644F3B78013B59
:103A4000DBB2032B88BF01233B703B780BB9032308
:103A50003B7000230093FA223221C9204FF4967361
:103A600001F0FEFC3978013901EB8101C9004531D3
:103A7000052289B2D22001F079FD0120FDF7ECFE8C
:103A8000C7E7524F3B780133DAE7504B18780228EA
:103A900024D0032841D00128EFD14D4FB7F8243A64
:103AA000013B9BB2012BA7F8243A03D9B7F8263A79
:103AB000092B73D8474B182202201A70464AA7F8E0
:103AC000240AC82101F082FE1023B7F8242A0093AB
:103AD0003C2102239B2001F037FECEE73C4FB7F894
:103AE000263AB7F8242A0A3B9BB2012AA7F8263ABD
:103AF00001D9092B5CD80A23A7F8263A354B18229E
:103B00001A70E121354A022001F060FE1023B7F857
:103B1000262A009364210323DCE700F04BFE304BA0
:103B200000211868FEF780FA00212868FEF77CFA69
:103B30003068FEF7FFFE0020FFF740F99DE7234BBA
:103B40001878012812D0022897D1214FB7F8263AC9
:103B5000B7F8242A0A339BB2072AA7F8263A02D8D4
:103B6000B3F5FA7F24D94FF4FA73C5E7184FB7F8C5
:103B7000243A01339BB2072BA7F8243A04D8B7F8AC
:103B8000263AB3F5FA7F09D90723A7F8243A114B4F
:103B900018221A70C821104A022093E700230093CC
:103BA0004FF49672E023C821022001F059FC8BE704
:103BB000002300934FF49672F923E12101F050FCA9
:103BC000A4E700BF044A0020F849002008000020B4
:103BD000144A00201000002024590008345900081D
:103BE000104A00202DE9F04F744CDFF8E4A1744E28
:103BF000DAF80000DFF8DC91724FDFF8DC81724DFB
:103C0000002384F8233A052387B0A4F8243A6423D8
:103C1000A4F8263AFFF7D2F83068FFF7CFF8D9F8C2
:103C20000000FFF7CBF83868FFF7C8F8D8F80000B5
:103C3000FFF7C4F82868FFF7C1F8CDF808A0DFF84F
:103C40009CA1CDF80C90A946029BDFF894B11868AE
:103C5000FFF7B4F83068FFF7B1F8039B1868FFF777
:103C6000ADF83868FFF7AAF8D8F80000FFF7A6F813
:103C7000D9F80000FFF7A2F8002384F8233A00F0F7
:103C800099FD012594F8233A33B10020FFF796F807
:103C90000120FDF7E1FDD7E764220DF11701DAF805
:103CA000000084F8215AFEF78BFB0128EAD19DF829
:103CB0001730032B0CD0042B30D0012B28D1434DCF
:103CC0002B78013B032B23D8DFE803F02C43586902
:103CD0003E4D2B78013BDBB2042B94BF2B70287038
:103CE0002B780BB904232B70002300933B223C213B
:103CF00014204FF4967301F0B3FB29780139C1EB1E
:103D000001118900503189B20522282001F02EFCD2
:103D10000021DBF80000FEF787F9B2E72B4D2B7886
:103D20000133D8E701230021DAF8000084F8233AB0
:103D3000FEF77AF900F036FB029B1868FEF7FAFDF1
:103D40000021DBF80000FEF76FF93868FEF7F2FD9E
:103D5000DEE70021DAF80000FEF766F90021DBF863
:103D60000000FEF761F900F085FD012330682B703B
:103D7000FEF7E0FD0020FFF721F8C9E70021DAF89F
:103D80000000FEF751F90021DBF80000FEF74CF9C6
:103D900000F0EAFD01232B70D8F80000E8E70021CD
:103DA000DAF80000FEF740F90021DBF80000FEF72A
:103DB0003BF900F00FFED9F80000D9E7144A0020C3
:103DC000084A00200C4A0020DC490020080000209E
:103DD000E8490020D8490020EC490020F84900209B
:103DE000104A002008B5074C20460221FCF713FDBD
:103DF00020460121FCF70FFD4FF4FA70FDF72CFD72
:103E0000F2E700BF0004024070B51824DEB0FDF7F1
:103E100087FC2246002101A801F05BFD5C4B019369
:103E200001AA01211020FDF731FD5A4B22461860EE
:103E3000002107A801F04DFD574B079307AA012168
:103E40001020FDF723FD554B242418602246002145
:103E50000DA801F03EFD524B0D934FF48063129379
:103E60000DAA202300214F481393FDF795FC4E4BDC
:103E700022461860002116A801F02BFD4B4B16932B
:103E80004FF48075282316AA002149481C931B95DE
:103E9000FDF782FC474B2246186000211FA801F065
:103EA00018FD454B1F934FF4007621231FAA0021D4
:103EB000424824962593FDF76FFC414B224618603B
:103EC000002128A801F005FD3E4B289328AA1F23B6
:103ED00000213D482E932D95FDF75EFC3B4B22467D
:103EE0001860002131A801F0F4FC394B319331AA5C
:103EF00027230021374836963793FDF74DFC364B84
:103F00002246186000213AA801F0E3FC2626334B34
:103F100033483A933AAA00213F954096FDF73CFC7E
:103F2000304B22461860002143A801F0D2FC2E4BF2
:103F300043938023489343AA082300212B484993A5
:103F4000FDF72AFC2A4B2246186000214CA801F0FC
:103F5000C0FC284B28484C934CAA002151955296FE
:103F6000FDF71AFC254B22461860002155A801F0E8
:103F7000B0FC234B559355AA1E23002121485B9387
:103F80005A95FDF709FC204B18605EB070BD00BF6C
:103F900047590008104A002052590008F8490020EB
:103FA0005D59000861350008E8490020665900089D
:103FB0003D360008D44900206F59000851370008E9
:103FC0000C4A00207D590008BD370008D849002060
:103FD0008A590008E53B0008044A0020955900086A
:103FE000093A0008084A00209E590008E53D0008EB
:103FF000004A0020A8590008C5380008EC490020F4
:10400000B4590008B9390008DC4900202DE9F04115
:104010008CB01422002107A801F05BFC0024424B65
:1040200001941A6B414EDFF8108142F004021A63CA
:104030001A6B02F004020192019A02941A6B42F088
:1040400001021A631A6B02F001020292029A0394AF
:104050001A6B42F080021A631A6B02F0800203921C
:10406000039A04941A6B42F002021A631A6B02F06C
:1040700002020492049A05941A6B42F010021A6329
:104080001A6B02F010020592059A06941A6B42F020
:1040900008021A631B6B03F008030693224630469E
:1040A0000321069BFCF7B2FB012230462021FCF7DE
:1040B000ADFB01254FF4005307A91D4807930227C4
:1040C00008940995FCF7B0FA07A91A4807950894CF
:1040D0000997FCF7A9FA0C2307A94046079308940F
:1040E0000995FCF7A1FA032307A930460793089521
:1040F00009940A94FCF798FA4FF4806307A94046A4
:104100000793089709940A940B97FCF78DFA2023DC
:1041100007A930460793089509950A97FCF784FA92
:104120000CB0BDE8F08100BF00380240000402403E
:104130000008024000000240001C024030B530245C
:10414000A1B02246002108A801F0C3FB14220021DF
:1041500003A801F0BEFB2246002114A801F0B9FB20
:104160000024214B01941A6C42F080521A641B6C9B
:104170001E4A03F080530193019B0294136823F4B9
:10418000404343F48043136013680F9403F44043A7
:104190000293029B0A23089301230B930D93082398
:1041A0001093502310220225119308A804230C9287
:1041B00013930E951295FCF735FB0F2303932946B5
:1041C0004FF4805303A80693049505940794FCF7D5
:1041D000D9FC2023149314A84FF400731E93FCF70A
:1041E00099FD21B030BD00BF003802400070004092
:1041F00008B5FCF785F9FFF7A1FFFFF707FFFFF709
:1042000031F900F015F800F03BF801F081F8FFF704
:10421000FBFDFDF7A1FAFEE70268034B9A4201D1CC
:10422000FCF788B9704700BF0010004070470000DD
:10423000054808B5054B0360FCF784FE18B1BDE8DE
:104240000840FFF7F3BF08BD3C54002000080650AB
:104250000268094B9A4282B00BD100230193074BAD
:104260005A6B42F040025A635B6B03F040030193C8
:10427000019B02B0704700BF0008065000380240A2
:1042800010B586B01422002101A801F022FB1E48BF
:104290001E4B002480E818007F238360FF230094D6
:1042A000C360046144618461FCF7CFFE08B1FFF78D
:1042B000BDFF012201A914488DF804408DF8054086
:1042C0008DF8064004940594FCF718FF08B1FFF739
:1042D000ADFF0122002369460B488DF800208DF8C0
:1042E00001208DF802208DF80330FCF777FF08B12C
:1042F000FFF79CFF002201210348FCF7CFFF08B124
:10430000FFF794FF06B010BD4C5400200028004079
:104310000268034B9A4202BF024B01221A607047A7
:10432000002800403C0E474213B5CB1DC21D4FF480
:1043300078440131013000949BB292B289B280B2CC
:1043400001F08EF802B010BD13B501F1080300F1C1
:104350000802002400949BB292B201F081F802B0EE
:1043600010BD13B58B1D821D4FF4FC640231023069
:1043700000949BB292B289B280B201F071F802B09F
:1043800010BD13B5CB1DC21D4FF6074401310130DE
:1043900000949BB292B289B280B201F061F802B08F
:1043A00010BD000073B54FF4967300241A462F4DCC
:1043B00000943C21142001F053F845F258432B603F
:1043C000EA22FA232F21072001F0B3F84FF6FF73FA
:1043D0002B60274A274D4FF48271142001F0F6F923
:1043E000012385F8213A244BB5F8242A11201870AE
:1043F000224802230370B5F8260A85F8220A2048CD
:10440000D1B20471102085F8201A8A1A00904FF456
:104410008271B42001F098F9AE1E95F8202A234647
:104420003146A024934210DB531E02F2872235F856
:10443000130035F81210FFF7A4FF002495F8203A76
:10444000013B9C4209DB02B070BD981CC00021F802
:10445000020F0133A1F81045E4E70236B6F8101553
:104460003088FFF761FF0134E8E700BF1400002047
:10447000A05A0008144A0020FC490020E44900200A
:10448000F049002070B50E4C94F8203A5A1E03F201
:10449000872334F8120034F81310FFF772FFA51EBB
:1044A000002694F8203A013B9E4200DB70BD0235A5
:1044B000B5F810152888FFF737FF0136F1E700BF80
:1044C000144A002038B5144CB4F810152088FFF7B2
:1044D0003BFF94F8201A23464A1E002418469442B3
:1044E00011DB8B1E01F2862130F8133020F81230D8
:1044F00030F8113002F52272083B20F81230BDE886
:104500003840FFF7BFBF5D8823F8025BB3F8105552
:10451000A3F80E550134E2E7144A002038B5144CD4
:10452000B4F810152088FFF70FFF94F8201A2346DF
:104530004A1E00241846944211DB8B1E01F286218C
:1045400030F8133020F8123030F8113002F52272B2
:10455000083320F81230BDE83840FFF793BF5D887C
:1045600023F8025BB3F81055A3F80E550134E2E7C7
:10457000144A002038B5144CB4F810152088FFF701
:10458000E3FE94F8201A23464A1E0024184694425B
:1045900011DB8B1E01F2862130F81330083B20F826
:1045A000123002F5227230F8113020F81230BDE8D6
:1045B0003840FFF767BF5D8823F8025BB3F81055FA
:1045C000A3F80E550134E2E7144A002038B5144C24
:1045D000B4F810152088FFF7B7FE94F8201A234688
:1045E0004A1E00241846944211DB8B1E01F28621DC
:1045F00030F81330083320F8123002F5227230F808
:10460000113020F81230BDE83840FFF73BBF5D881D
:1046100023F8025BB3F81055A3F80E550134E2E716
:10462000144A002038B50C4D0C4C2846FCF7D0FC41
:104630001B23B0FBF3F202FB13000230C00020800A
:104640002846FCF7C5FC1823B0FBF3F202FB13006D
:104650000730C000608038BD3C540020F049002085
:10466000F8B5114C2379012B03D161882088FFF71D
:1046700078FE23796BB90D4DFFF7D4FF95F8201A1A
:10468000208866880A4A00238B4203DBF4D1012389
:104690002371F8BD32F8027F874203D1B2F810755A
:1046A000B742E9D00133EFE7F0490020144A002077
:1046B000124A002037B51D4C1D4D94F8203A288829
:1046C0005A1E34F8122090422DD103F287236988B4
:1046D00034F81330994226D1FFF736FE94F8203A89
:1046E00094F8222A288869880133DBB2013284F8E1
:1046F000203A84F8222A5A1E03F2872324F8120053
:1047000024F81310FFF73DFE002394F8201AB4F8A4
:10471000242A2B71102300938A1A02234FF48271EA
:10472000B42001F011F803B030BD00BF144A0020DE
:10473000F0490020F0B5124B93F8201A03290ED946
:1047400003EB410293F8210A4E1E043A9D1C0024FB
:1047500001F28721AA4203D10CB183F8210AF0BDEE
:1047600032F802ED33F81670BE45F3D1B2F810E519
:1047700033F81170BE4504BF01240020EAE700BFF2
:10478000144A00200A4B93F8201A4A1E33F81220CC
:10479000023A92B2E42A07D801F2872133F81120B5
:1047A0002A3A92B2C82A02D9002283F8212A7047F5
:1047B000144A002073B54FF4967300241A4621461C
:1047C0002046254E009400F04BFE244D244A4FF61F
:1047D000FF7333602046102307212B7000F0F6FF93
:1047E00045F2584333601E2319462046F02200F05C
:1047F0005BFE3C2108466423B42200F09AFEA0230D
:10480000B42278213C2000F094FEB4221146DC232F
:104810003C2000F08EFE4FF48C73B422F0213C203B
:1048200000F087FE18230F4A2B7044215A2000F015
:10483000CDFF0D4A80214E2000F0C8FF0B4ABC215D
:104840004E2000F0C3FF0A4AF821542002B0BDE810
:10485000704000F0BBBF00BF14000020100000201B
:104860007C5A00088A5A0008905A0008985A000892
:10487000B959000837B5002300934FF496731A46D0
:104880003C21142000F0ECFD1C4B1D4D18221A7029
:104890003C211C4A022000F099FF1B4A642102209F
:1048A00000F094FF194A8E219A2000F08FFF102407
:1048B0005423C8223721962000F03BFEB5F8242A65
:1048C000009402233C219B2000F03EFFB5F8262AED
:1048D0000094032364219B2000F036FF7C23C82230
:1048E0005F21962000F025FEA423C8228721962070
:1048F00003B0BDE8304000F01CBE00BF1000002037
:10490000144A0020615A00086D5A0008785A0008BD
:10491000C82337B51A46104D50213C2000F009FE3F
:1049200018230E4A2B7064214A2000F04FFF1024F8
:104930000B4A2C708021642000F048FF094B93F84B
:10494000201AB3F8242A00948A1A022380218E2088
:1049500000F0FAFE03B030BD10000020355A000808
:10496000A05A0008144A002073B54FF4967300262D
:104970001A46134C00963C21142000F071FD1825B6
:10498000104A25703C21022000F020FF31460E48DD
:10499000FCF7E4FC20230093024603236421282033
:1049A00000F0D2FE094A2570A021022000F00EFF7F
:1049B000074AB921022002B0BDE8704000F006BFEE
:1049C000100000203F5A00084C5400204E5A0008A6
:1049D000575A000813B54FF4967300241A460094F2
:1049E0003C21142000F03CFD0F4B10221A70204691
:1049F0000E4A502100F0EAFE20460D4A692100F0DF
:104A0000E5FE20460B4A822100F0E0FE20460A4ADD
:104A10009B2100F0DBFE094AB421204602B0BDE82C
:104A2000104000F0D3BE00BF10000020C95900089C
:104A3000DF590008F2590008085A0008165A000801
:104A400007B50F4B00220092596C41F48041596424
:104A5000596C01F48041009100990192196C41F068
:104A6000805119641B6C03F0805301930F216FF088
:104A70000100019BFBF796FD03B05DF804FB00BF4E
:104A80000038024030B5014689B000223620FBF7DD
:104A900089FD3620FBF7BAFD0025154B02951A6CEF
:104AA000144C42F010021A641B6C03F010030293C2
:104AB00001A903A8029BFCF70FF9FCF7FDF80E4BC8
:104AC000236040F2E733E36040000C4BB0FBF3F0AF
:104AD0000138606020462561A560FCF78BFD20B998
:104AE0002046FCF76BFC09B030BD0120FBE700BF9E
:104AF000003802406C5400200010004040420F007B
:104B00007047FEE7FEE7FEE7FEE770470148FCF767
:104B100069BC00BF6C5400200F49D1F8883043F4C1
:104B20007003C1F888300D4B1A68002042F0010272
:104B30001A6098601A6822F0847222F480321A6037
:104B4000074A5A601A6822F480221A60D8604FF02F
:104B500000638B60704700BF00ED00E0003802404A
:104B60001030002482B0074AADF80600BDF80630C8
:104B70009BB2ADF80630BDF806309BB2138002B090
:104B8000704700BFFEFF076082B0074AADF806001D
:104B9000BDF806309BB2ADF80630BDF806309BB2CA
:104BA000538002B0704700BFFEFF0760054B5B8873
:104BB00082B09BB2ADF80630BDF8060080B202B0FC
:104BC000704700BFFEFF0760024B1A89024B1A8034
:104BD000704700BFB2540020FEFF0760F8B53E4D9D
:104BE000AB8849F24132934206462C4603D045F247
:104BF0001032934210D16089FFF7B4FF300AFFF7FB
:104C0000C3FFF0B2FFF7C0FFA089FFF7ABFF080AB0
:104C1000FFF7BAFFC8B22AE041F6631293423CD1D3
:104C2000AF7968893FBB2D88013DFFF79BFFAD1B26
:104C30003846ADB2FFF7A8FF3846FFF7A5FF280AB0
:104C4000FFF7A2FFE8B2FFF79FFFA089FFF78AFFF7
:104C5000080AFFF799FFC8B2FFF796FF608801388E
:104C6000C0F30F20FFF790FF60880138C0B2BDE8A5
:104C7000F840FFF789BFFFF775FF300AFFF784FFA1
:104C8000F0B2FFF781FF28880138C0F30F20FFF74B
:104C90007BFF28880138C0B2D5E745F21052934215
:104CA00019D16889FFF75EFF300AFFF76DFF688949
:104CB000013080B2FFF756FFF0B2FFF765FFA88919
:104CC000FFF750FF080AFFF75FFFA889013080B2A5
:104CD000FFF748FF9EE7F8BDB254002010B56D49BC
:104CE0008A79012A41F6631328D18A889A422AD107
:104CF0008B8849F2413293420CD045F210329342F4
:104D000008D045F21052934204D041F66312934208
:104D100040F0BE800138C0B2062898BF5E4A45F216
:104D2000105494BF125C0022A34290B223D045F2EB
:104D30001034A34240F0A48036221EE0002AD7D1CE
:104D40008A889A42D4D10728D2D8DFE800F012042A
:104D500006080A0C0E100720CAE70420C8E7052041
:104D6000C6E70120C4E70020C2E70320C0E7022015
:104D7000BEE70620BCE74FF45852484C228041F66B
:104D800063129342608057D010F0200F0A88488841
:104D900004D0824204D208804A8001E08242FAD8DC
:104DA00045F21052934247D14889FFF7DBFE0020BD
:104DB000FFF7EAFE4889013080B2FFF7D3FE0020FA
:104DC000FFF7E2FE4889023080B2FFF7CBFE088889
:104DD0000138C0F30F20FFF7D7FE4889033080B2B7
:104DE000FFF7C0FE08880138C0B2FFF7CDFE888902
:104DF000FFF7B8FE0020FFF7C7FE8889013080B2B8
:104E0000FFF7B0FE0020FFF7BFFE8889023080B2B6
:104E1000FFF7A8FE48880138C0F30F20FFF7B4FE63
:104E20008889033080B2FFF79DFE48880138C0B200
:104E3000BDE81040FFF7A8BE4889FFF793FE0020A9
:104E4000FFF7A2FE0020FFF79FFE08880138C0F39D
:104E50000F20FFF799FE08880138C0B2FFF794FED3
:104E60008889FFF77FFE0020FFF78EFE0020FFF706
:104E70008BFE48880138C0F30F20FFF785FED4E78A
:104E800041F66314A3423FF457AF42F0080053E7E2
:104E900010BD00BFB2540020BF5A0008FEFF0760DB
:104EA00008B5FFF79BFEFFF78FFE024B1A88024BF7
:104EB0005A8008BD14000020FEFF0760F8B5364C8C
:104EC000A388164649F241329342054603D045F283
:104ED0001032934217D16089FFF744FE280AFFF78A
:104EE00053FEE8B2FFF750FEA089FFF73BFE080A29
:104EF000FFF74AFEC8B2FFF747FE284B22891A8007
:104F0000B6B25E80F8BD45F21052934219D1608965
:104F1000FFF728FE280AFFF737FE6089013080B2CC
:104F2000FFF720FEE8B2FFF72FFEA089FFF71AFE79
:104F3000080AFFF729FEA089013080B2FFF712FEB0
:104F4000D8E741F663129342D7D1A3791BB92388DE
:104F5000013B1D1AADB22F0A6089FFF703FEEDB2C7
:104F60003846FFF711FE2846FFF70EFE3846FFF7DA
:104F70000BFE2846FFF708FEA089FFF7F3FD0D0A98
:104F80002846FFF701FEC9B20846FFF7FDFD284697
:104F9000FFF7FAFD0846AEE7B2540020FEFF0760B7
:104FA00010B53F4CF022A0714FF4A071A3880028E7
:104FB00037D1228049F241329342618003D045F2D9
:104FC000103293420FD12C2222812A2262812B227D
:104FD000A28145F21032934237D14FF4A07323805F
:104FE0004FF4F07311E045F2105293420FD14FF499
:104FF000305323814FF4285363814FF42C53A38102
:105000004FF4F07323804FF4487363801DE041F642
:105010006312934219D12C2323812B2363812A23EA
:10502000EDE7628049F241329342218003D045F29C
:105030001032934213D12C2222812A2262812B2208
:10504000A28145F21032934223D00020FFF746FEA2
:10505000144B22881A80144B62881A8010BD45F2C6
:10506000105293420BD14FF4305323814FF4285305
:1050700063814FF42C53A3814FF44873AFE741F69B
:1050800063129342E1D12C2323812A2363812B23B2
:10509000F1E74FF4F07323804FF4A073B5E700BF3E
:1050A000B2540020AC540020B054002008B5CF20EA
:1050B000FFF758FD0020FFF767FDC120FFF764FDF3
:1050C0003020FFF761FDED20FFF74CFD6420FFF776
:1050D0005BFD0320FFF758FD1220FFF755FD8120EF
:1050E000FFF752FDE820FFF73DFD8520FFF74CFD5F
:1050F0001020FFF749FD7A20FFF746FDCB20FFF790
:1051000031FD3920FFF740FD2C20FFF73DFD002049
:10511000FFF73AFD3420FFF737FD0220FFF734FD9B
:10512000F720FFF71FFD2020FFF72EFDEA20FFF7F5
:1051300019FD0020FFF728FD0020FFF725FDC02006
:10514000FFF710FD1B20FFF71FFDC120FFF70AFD31
:105150000120FFF719FDC520FFF704FD3020FFF700
:1051600013FD3020FFF710FDC720FFF7FBFCB72031
:10517000FFF70AFD3620FFF7F5FC4820FFF704FD96
:105180003A20FFF7EFFC5520FFF7FEFCB120FFF7B8
:10519000E9FC0020FFF7F8FC1A20FFF7F5FCB62029
:1051A000FFF7E0FC0A20FFF7EFFCA220FFF7ECFC82
:1051B000F220FFF7D7FC0020FFF7E6FC2620FFF7E0
:1051C000D1FC0120FFF7E0FCE020FFF7CBFC0F2033
:1051D000FFF7DAFC2A20FFF7D7FC2820FFF7D4FCE2
:1051E0000820FFF7D1FC0E20FFF7CEFC0820FFF7C8
:1051F000CBFC5420FFF7C8FCA920FFF7C5FC4320D7
:10520000FFF7C2FC0A20FFF7BFFC0F20FFF7BCFC32
:105210000020FFF7B9FC0020FFF7B6FC0020FFF7E5
:10522000B3FC0020FFF7B0FCE120FFF79BFC00205F
:10523000FFF7AAFC1520FFF7A7FC1720FFF7A4FC37
:105240000720FFF7A1FC1120FFF79EFC0620FFF7C7
:105250009BFC2B20FFF798FC5620FFF795FC3C2089
:10526000FFF792FC0520FFF78FFC1020FFF78CFC66
:105270000F20FFF789FC3F20FFF786FC3F20FFF758
:1052800083FC0F20FFF780FC2B20FFF76BFC002036
:10529000FFF77AFC0020FFF777FC0120FFF774FC92
:1052A0003F20FFF771FC2A20FFF75CFC0020FFF78E
:1052B0006BFC0020FFF768FC0020FFF765FCEF2087
:1052C000FFF762FC1120FFF74DFC7820FBF744F953
:1052D0002920BDE80840FFF745BC000038B50A4B5F
:1052E00000211C885B88054608465C43FFF776FC76
:1052F000FFF76AFC054A0023ADB2A34200D138BDD6
:1053000055800133F9E700BFB2540020FEFF07606B
:1053100010B5D320FFF726FCFFF748FC4D4CA080CA
:10532000FFF744FCA080FFF741FC0002A080FFF7DC
:105330003DFCA388184380B249F241339842A080D3
:1053400056D0D420FFF70EFCFFF730FCA080FFF70B
:105350002DFCA080FFF72AFC0002A080FFF726FCAE
:10536000A388184380B245F210339842A0803AD007
:105370004FF45A40FFF7F6FBFFF718FCA0804FF4FC
:105380005B40FFF7EFFBFFF711FC0002A0804FF43A
:105390005C40FFF7E7FBFFF709FCA388184380B2E6
:1053A000B0F5004F06BF45F21053A380A080A2883D
:1053B00045F210539A4216D0A120FFF7D3FBFFF716
:1053C000F5FBA080FFF7F2FB0002A080FFF7EEFBE9
:1053D000A388184380B245F2617398420ABF41F630
:1053E0006313A080A380A28849F241339A4201D17D
:1053F000FFF75CFEA38849F2413293420BD045F29D
:105400001032934207D045F21052934203D041F636
:105410006312934210D1104B1A6822F00F021A60E7
:105420001A6822F470621A601A6842F004021A6064
:105430001A6842F480621A600020FFF7B1FD074845
:1054400001222021FBF7E2F90020BDE81040FFF720
:1054500045BF00BFB2540020040100A00004024078
:105460002DE9F843151A0135BDF82080DFF8349096
:1054700006460C461F46ADB2BC4201D9BDE8F883D2
:1054800021463046FFF7AAFBFFF79EFB002293B2AE
:105490009D4202D80134A4B2EEE7A9F8028001329D
:1054A000F5E700BFFEFF07602DE9F04F141A002C4E
:1054B00085B082468B46A3EB01051ADC1BD0644203
:1054C0004FF0FF32002D18DC19D06D424FF0FF3342
:1054D000AC42A146B8BFA946002609F10101B04679
:1054E000374601910198B1B281420ADD05B0BDE8AD
:1054F000F08F0122E6E72246E4E70123E8E72B46A6
:10550000E6E71FFA8BF11FFA8AF003930292274411
:10551000FFF7C6FC029A039B4F45A844C4BFA7EB04
:1055200009079244C845C4BFA8EB09089B4401364B
:10553000D8E72DE9F0411C4606460D460B461746B6
:10554000FFF7B2FF2346324629463046FFF7ACFF4D
:1055500023463A4621463046FFF7A6FF23463A4601
:1055600029463846BDE8F041FFF79EBF2DE9F04FD0
:10557000540085B081468A469046C4F10304002752
:10558000BEB21FFA88F509EB0602AAEB050392B238
:105590009BB21946104601930392FFF781FCAAEBD8
:1055A000060109EB05038AB29BB211461846009228
:1055B00002930AEB060BFFF773FC029B1FFA8BFBAF
:1055C00018465946FFF76CFC039A05EB0A039BB299
:1055D000104619460293A9EB0606FFF761FC029BF1
:1055E000B6B2A9EB050519463046ADB2FFF758FC37
:1055F00059462846FFF754FC01993046FFF750FC06
:1056000000992846FFF74CFC0137002CA9BFA7EBF7
:10561000080304EB870404EB830408F1FF38B4BFEC
:1056200006340A34B845ABDA05B0BDE8F08F0000A7
:105630002DE9F04F87B088460593394B1D78394BDB
:105640006908064608441880374BA3F8008015F017
:10565000070318BF012303EBD50313FB01F3DBB2F0
:105660000093203A314BD2B203EBC2130493304B78
:1056700002EBC20103EB810303932E4B03EB0213F6
:1056800001932D4B02EB420203EB8203029344464B
:105690004FF0000B009B5FFA8BF2934202D807B0E9
:1056A000BDE8F08F0C2D26D1029B13F80B70DFF8AC
:1056B00094A004F108091FFA89F93B0627D51F4B6E
:1056C0001A6821463046FFF7F9FB0134BAF8022088
:1056D000A4B27F00A242FFB2E1D9A4EB0802AA4221
:1056E0001AD10136BAF80020B6B2B242D7D9444630
:1056F0000BF1010BCEE7102D01D1019BD5E7182D41
:1057000001D1039BD1E7202DC9D1049BCDE7059B97
:10571000002BDAD10A4BD3E7A145CED1E8E700BF91
:1057200010000020C0540020AE54002086720008F3
:105730002A6500083A5F0008C65A000814000020D5
:105740003C490020B25400202DE9F74F99469DF8BE
:10575000303001925B08002405468A4600930646D5
:10576000274609F1FF3B4FF00A084C4502D103B030
:10577000BDE8F08FABEB0403DBB20122013BDBB2EF
:10578000FF2B18D1019BB3FBF2F2B2FBF8F308FB3D
:105790001322D3B29FB9A34511DD7AB93B4620222B
:1057A00051462846FFF744FF009B1D441E44013428
:1057B000ADB2B6B2D9E708FB02F2DFE7012703F189
:1057C0003002D2B2002351463046EBE72DE9F041DA
:1057D000104F0D46561E04465FFA80F816F8012F4A
:1057E0000AB9BDE8F0813B88A34204D80A4B1B7874
:1057F0001D444446ADB2094B1B88AB42F1D900238E
:1058000020462946FFF714FF034B1B7804EB530493
:10581000A4B2E3E7AC54002010000020B0540020F4
:10582000DFF834D0002103E00C4B5B5843500431C7
:105830000B480C4B42189A42F6D30B4A02E0002365
:1058400042F8043B094B9A42F9D3FFF765F900F09F
:1058500011F8FEF7CDFC70470000032018A20008E5
:10586000000000201800002018000020C454002070
:10587000FEE7000070B50D4E0D4CA41BA4100025D2
:10588000A54209D10B4E0C4C00F02CF8A41BA4101F
:105890000025A54205D170BD56F825309847013541
:1058A000EEE756F8253098470135F2E710A20008D8
:1058B00010A2000810A2000814A2000810B5431E90
:1058C0000A44914200D110BD11F8014B03F8014F79
:1058D000F7E702440346934200D1704703F8011BE7
:1058E000F9E70000F8B500BFF8BC08BC9E46704759
:0C58F000F8B500BFF8BC08BC9E4670472D
:1058FC0049444C4500546D725100546D72205376DE
:10590C0063004E4557205245434F524421212100FC
:10591C005245434F52443A006C656E6774685F4F52
:10592C00555452414E47450053706565645F4F5561
:10593C005452414E4745000401020351756575658B
:10594C005F4B6579730051756575655F6B65793271
:10595C00004C43445F53484F57004B45595F5343EA
:10596C00414E0052756C655F4A7564676D656E7467
:10597C000047414D454F5645525441534B004761EA
:10598C006D655F5374617274005345545454494EA1
:10599C0047004C45445F424C494E4B0053484F57CF
:1059AC005F5245434F52440053484F575F41555443
:1059BC00484F52002020202000202D3E00436C61D7
:1059CC0073733A4175746F6D6174696F6E20313702
:1059DC00303400417574686F723A4368656E466581
:1059EC006E6768616F0053747564656E742049440A
:1059FC003A31373035303130343038004E616D65E6
:105A0C00206F6620776F726B3A0047726565647918
:105A1C0020536E616B65204261736564206F6E204C
:105A2C004672656552746F730047414D45204F5661
:105A3C00455200594F5552205245434F524420492C
:105A4C005300202020204241434B002020202043A3
:105A5C004C45414E00496E69744C656E6774683AEA
:105A6C0000496E697453706565643A00534554007F
:105A7C00534E414B452047414D4520202000535467
:105A8C004152540053455454494E47005245434FDC
:105A9C004152440053434F52453A0000000000006D
:105AAC0000000001020304060708090000000001C1
:105ABC000203048040C02060A0E000000000000051
:105ACC00000000000000000000003F40000000004B
